:100000000C9446000C9465000C9465000C946500FB
:100010000C9465000C9465000C9465000C946500CC
:100020000C9465000C9465000C9465000C946500BC
:100030000C9465000C9465000C9465000C946500AC
:100040000C9465000C9465000C9465000C9465009C
:100050000C9465000C9465000C9465000C9465008C
:100060000C9465000C9465000C9465000C9465007C
:100070000C9465000C9465000C9465000C9465006C
:100080000C9465000C9465000C94650011241FBE4F
:10009000CFEFD0E4DEBFCDBF11E0A0E0B1E0E2EBF6
:1000A000F2E000E00BBF02C007900D92AE30B10746
:1000B000D9F711E0AEE0B1E001C01D92A031B10767
:1000C000E1F70E943F010C9457010C940000CF937C
:1000D000DF9300D01F92CDB7DEB789837B836A831D
:1000E00089818A3031F48A819B81BC018DE00E9434
:1000F000670080EC90E0FC018081882F90E08072A6
:1001000099270097B1F386EC90E02981FC012083C8
:1001100080E090E00F900F900F90DF91CF910895C5
:10012000CF93DF93CDB7DEB780910E0190910F0191
:100130008230910509F44CC08330910530F400976A
:1001400049F08130910521F180C08530910508F09A
:100150007CC077C080E290E0FC018081843039F47B
:1001600081E090E090930F0180930E0110C080E237
:1001700090E0FC018081881F8827881F813039F436
:1001800084E090E090930F0180930E015FC05EC009
:1001900080E290E0FC018081882339F482E090E0E5
:1001A00090930F0180930E0112C080E290E0FC0159
:1001B0008081843039F481E090E090930F01809346
:1001C0000E0105C010920F0110920E013FC03EC0FB
:1001D00080E290E0FC018081823069F485E290E069
:1001E000FC018081813039F483E090E090930F012D
:1001F00080930E0125C080E290E0FC018081823076
:1002000069F485E290E0FC018081882339F484E080
:1002100090E090930F0180930E0112C080E290E075
:10022000FC018081882339F482E090E090930F01F3
:1002300080930E0105C010920F0110920E0106C0AE
:1002400005C010920F0110920E01000080910E0166
:1002500090910F018330910521F08430910539F0A0
:100260000BC085E290E021E0FC01208305C085E21F
:1002700090E0FC0110820000DF91CF910895CF93B0
:10028000DF93CDB7DEB781E290E0FC01108284E21B
:1002900090E02FEFFC01208385E290E0FC011082CA
:1002A00010920F0110920E010E949000FDCFF89461
:0202B000FFCF7E
:0E02B2000000000200000000670000000000D5
:00000001FF
