:100000000C9446000C9465000C9465000C946500FB
:100010000C9465000C9465000C9465000C946500CC
:100020000C9465000C9465000C9465000C946500BC
:100030000C9465000C9465000C9465000C946500AC
:100040000C9465000C9465000C9465000C9465009C
:100050000C9465000C9465000C9465000C9465008C
:100060000C9465000C9465000C9465000C9465007C
:100070000C9465000C9465000C9465000C9465006C
:100080000C9465000C9465000C94650011241FBE4F
:10009000CFEFD0E4DEBFCDBF11E0A0E0B1E0ECECEB
:1000A000F3E000E00BBF02C007900D92AE30B10745
:1000B000D9F711E0AEE0B1E001C01D92A031B10767
:1000C000E1F70E94C9010C94E4010C940000CF9365
:1000D000DF9300D01F92CDB7DEB789837B836A831D
:1000E00089818A3031F48A819B81BC018DE00E9434
:1000F000670080EC90E0FC018081882F90E08072A6
:1001000099270097B1F386EC90E02981FC012083C8
:1001100080E090E00F900F900F90DF91CF910895C5
:10012000CF93DF93CDB7DEB780910E0190910F0191
:100130008230910509F486C08330910538F4009728
:10014000B9F18130910509F462C0F0C084309105A5
:1001500049F08430910508F4A2C08530910509F476
:10016000B9C0E4C080E290E0FC018081813029F4D4
:1001700010920F0110920E011AC080E290E0FC0173
:100180008081823039F482E090E090930F01809377
:100190000E010DC080E290E0FC018081833039F4D3
:1001A00085E090E090930F0180930E01BFC0BEC028
:1001B00080E290E0FC018081833039F485E090E0BA
:1001C00090930F0180930E0121C080E290E0FC012A
:1001D0008081823039F482E090E090930F01809327
:1001E0000E0114C080E290E0FC018081882339F484
:1001F00084E090E090930F0180930E0107C081E0AE
:1002000090E090930F0180930E0190C08FC080E228
:1002100090E0FC018081882339F484E090E09093A1
:100220000F0180930E010DC080E290E0FC018081FF
:10023000833039F485E090E090930F0180930E01B4
:1002400075C074C080E290E0FC018081833039F495
:1002500085E090E090930F0180930E011FC080E233
:1002600090E0FC018081813029F410920F011092FE
:100270000E0114C080E290E0FC018081882339F4F3
:1002800084E090E090930F0180930E0107C083E01B
:1002900090E090930F0180930E0148C047C080E228
:1002A00090E0FC018081882339F484E090E0909311
:1002B0000F0180930E010DC080E290E0FC0180816F
:1002C000833039F485E090E090930F0180930E0124
:1002D0002DC02CC084E090E090930F0180930E011C
:1002E00080E290E0FC018081813029F410920F01BE
:1002F00010920E011AC080E290E0FC0180818230F1
:1003000039F482E090E090930F0180930E010DC0CC
:1003100080E290E0FC018081833039F485E090E058
:1003200090930F0180930E0100C0000080910E0198
:1003300090910F0182309105A9F08530910509F166
:10034000009709F023C088E290E0FC0180818930A9
:1003500040F488E290E0FC0120812F5FFC012083C3
:1003600015C014C088E290E0FC018081882341F030
:1003700088E290E0FC0120812150FC01208306C02E
:1003800005C088E290E0FC0110820000DF91CF916F
:100390000895CF93DF93CDB7DEB781E290E0FC0103
:1003A000108287E290E02FEFFC01208388E290E04A
:1003B00027E0FC01208384E090E090930F0180937C
:0C03C0000E010E949000FDCFF894FFCFCA
:0E03CC000000000200000000670000000000BA
:00000001FF
