:100000000C9446000C9465000C9465000C946500FB
:100010000C9465000C9465000C9465000C946500CC
:100020000C9465000C9465000C9465000C946500BC
:100030000C9465000C9465000C9465000C946500AC
:100040000C9465000C9465000C9465000C9465009C
:100050000C9465000C9465000C9465000C9465008C
:100060000C9465000C9465000C9465000C9465007C
:100070000C9465000C9465000C9465000C9465006C
:100080000C9465000C9465000C94650011241FBE4F
:10009000CFEFD0E4DEBFCDBF11E0A0E0B1E0E4E3FC
:1000A000F2E000E00BBF02C007900D92AE30B10746
:1000B000D9F711E0AEE0B1E001C01D92A031B10767
:1000C000E1F70E9404010C9418010C940000CF93F6
:1000D000DF9300D01F92CDB7DEB789837B836A831D
:1000E00089818A3031F48A819B81BC018DE00E9434
:1000F000670080EC90E0FC018081882F90E08072A6
:1001000099270097B1F386EC90E02981FC012083C8
:1001100080E090E00F900F900F90DF91CF910895C5
:10012000CF93DF93CDB7DEB780910E0190910F0191
:100130008230910529F18330910530F4009759F010
:100140008130910579F046C08330910539F18430D2
:10015000910591F13FC081E090E090930F01809371
:100160000E0138C080E290E0FC018081882339F4E0
:1001700082E090E090930F0180930E012BC02AC083
:1001800080E290E0FC018081813039F483E090E0EE
:1001900090930F0180930E011DC01CC080E290E07F
:1001A000FC018081882339F484E090E090930F0172
:1001B00080930E010FC00EC080E290E0FC018081B0
:1001C000813039F481E090E090930F0180930E012B
:1001D00000C0000080910E0190910F0181309105C7
:1001E00021F08330910539F00CC085E290E021E0E8
:1001F000FC01208306C085E290E022E0FC01208320
:100200000000DF91CF910895CF93DF93CDB7DEB794
:1002100081E290E0FC01108284E290E02FEFFC018B
:10022000208310920F0110920E010E949000FDCFCA
:04023000F894FFCF70
:0E023400000000020000000067000000000053
:00000001FF
