:100000000C9446000C9465000C9465000C946500FB
:100010000C9465000C9465000C9465000C946500CC
:100020000C9465000C9465000C9465000C946500BC
:100030000C9465000C9465000C9465000C946500AC
:100040000C9465000C9465000C9465000C9465009C
:100050000C9465000C9465000C9465000C9465008C
:100060000C9465000C9465000C9465000C9465007C
:100070000C9465000C9465000C9465000C9465006C
:100080000C9465000C9465000C94650011241FBE4F
:10009000CFEFD0E4DEBFCDBF11E0A0E0B1E0E0E7FC
:1000A000F2E000E00BBF02C007900D92A231B10751
:1000B000D9F711E0A2E1B1E001C01D92A931B10769
:1000C000E1F70E941E010C9436010C940000CF93BE
:1000D000DF9300D01F92CDB7DEB789837B836A831D
:1000E00089818A3031F48A819B81BC018DE00E9434
:1000F000670080EC90E0FC018081882F90E08072A6
:1001000099270097B1F386EC90E02981FC012083C8
:1001100080E090E00F900F900F90DF91CF910895C5
:10012000CF93DF93CDB7DEB780911701909118017F
:100130008130910519F18130910520F082309105CF
:1001400011F126C080E290E0FC018081882329F42F
:10015000109218011092170110C080E290E0FC018B
:100160008081881F8827881F813039F482E090E0E1
:1001700090931801809317010BC00AC010921801C8
:100180001092170105C0109218011092170100007B
:1001900080911701909118018130910509F440C0B8
:1001A0008130910528F08230910509F43FC043C0A9
:1001B00080911601882381F480911601813061F4C9
:1001C00080911501823041F480911401813021F435
:1001D00080911301843059F0109213011092140190
:1001E00010921501109216011092120118C080E2AF
:1001F00090E0FC018081882391F080911201882F8A
:1002000090E020E230E0F90120818D5E9E4FFC01FC
:100210002083809112018F5F809312010CC00BC06C
:1002200085E290E021E0FC01208305C085E290E0BA
:10023000FC0110820000DF91CF910895CF93DF93EE
:10024000CDB7DEB781E290E0FC01108284E290E05D
:100250002FEFFC01208385E290E0FC0110821092D8
:100260001801109217010E949000FDCFF894FFCF63
:100270000000000200000000670000000000040110
:02028000020179
:00000001FF
