:100000000C9446000C9465000C9465000C946500FB
:100010000C9465000C9465000C9465000C946500CC
:100020000C9465000C9465000C9465000C946500BC
:100030000C9465000C9465000C9465000C946500AC
:100040000C9465000C9465000C9465000C9465009C
:100050000C9465000C9465000C9465000C9465008C
:100060000C9465000C9465000C9465000C9465007C
:100070000C9465000C9465000C9465000C9465006C
:100080000C9465000C9465000C94650011241FBE4F
:10009000CFEFD0E4DEBFCDBF11E0A0E0B1E0EEE1F4
:1000A000F3E000E00BBF02C007900D92A231B10750
:1000B000D9F711E0A2E1B1E001C01D92A531B1076D
:1000C000E1F70E9475010C948D010C940000CF9310
:1000D000DF9300D01F92CDB7DEB789837B836A831D
:1000E00089818A3031F48A819B81BC018DE00E9434
:1000F000670080EC90E0FC018081882F90E08072A6
:1001000099270097B1F386EC90E02981FC012083C8
:1001100080E090E00F900F900F90DF91CF910895C5
:10012000CF93DF93CDB7DEB7809113019091140187
:1001300081309105C1F18130910548F082309105FF
:1001400009F46FC08330910509F499C09CC080E226
:1001500090E0FC018081282F30E080911201882FEF
:1001600090E0825F9E4FFC018081992787FD9095EA
:100170002817390739F481E090E0909314018093B7
:10018000130110C080E290E0FC018081881F882765
:10019000881F813039F483E090E0909314018093BC
:1001A000130172C071C080911201823039F483E072
:1001B00090E0909314018093130132C080E290E0AC
:1001C000FC018081282F30E080911201882F90E07F
:1001D000825F9E4FFC018081992787FD90952817AB
:1001E000390739F481E090E0909314018093130172
:1001F00017C080E290E0FC018081882361F482E0F6
:1002000090E09093140180931301809112018F5F0D
:100210008093120105C0109214011092130134C092
:1002200033C080E290E0FC018081882339F482E0D1
:1002300090E0909314018093130120C080E290E03D
:10024000FC018081282F30E080911201882F90E0FE
:10025000825F9E4FFC018081992787FD909528172A
:10026000390739F481E090E09093140180931301F1
:1002700005C0109214011092130106C005C010921F
:100280001401109213010000809113019091140148
:10029000009721F08330910521F024C010921201C3
:1002A00021C080E290E0FC018081881F8827881FA0
:1002B0008130B9F085E290E0FC018081882331F43F
:1002C00085E290E021E0FC0120830BC085E290E014
:1002D000FC018081813029F485E290E0FC011082EC
:1002E00000C00000DF91CF910895CF93DF93CDB789
:1002F000DEB781E290E0FC01108284E290E02FEF13
:10030000FC01208385E290E0FC0110821092140130
:0E031000109213010E949000FDCFF894FFCFD1
:10031E000000000200000000670000000000040161
:02032E000201CA
:00000001FF
