:100000000C9446000C9465000C9465000C946500FB
:100010000C9465000C9465000C9465000C946500CC
:100020000C9465000C9465000C9465000C946500BC
:100030000C9465000C9465000C9465000C946500AC
:100040000C9465000C9465000C9465000C9465009C
:100050000C9465000C9465000C9465000C9465008C
:100060000C9465000C9465000C9465000C9465007C
:100070000C9465000C9465000C9465000C9465006C
:100080000C9465000C9465000C94650011241FBE4F
:10009000CFEFD0E4DEBFCDBF11E0A0E0B1E0E6ECF1
:1000A000F2E000E00BBF02C007900D92AE30B10746
:1000B000D9F711E0AEE0B1E001C01D92A031B10767
:1000C000E1F70E944D010C9461010C940000CF9364
:1000D000DF9300D01F92CDB7DEB789837B836A831D
:1000E00089818A3031F48A819B81BC018DE00E9434
:1000F000670080EC90E0FC018081882F90E08072A6
:1001000099270097B1F386EC90E02981FC012083C8
:1001100080E090E00F900F900F90DF91CF910895C5
:10012000CF93DF93CDB7DEB780910E0190910F0191
:100130008230910509F45BC08330910530F400975B
:1001400061F081309105C1F174C08330910561F097
:100150008430910509F466C06CC083E090E0909310
:100160000F0180930E0165C080E290E0FC01808168
:10017000813039F481E090E090930F0180930E017B
:100180001AC080E290E0FC018081823039F482E084
:1001900090E090930F0180930E010DC080E290E0FB
:1001A000FC018081833039F484E090E090930F016A
:1001B00080930E013EC03DC080E290E0FC01808152
:1001C000882339F483E090E090930F0180930E012F
:1001D0000DC080E290E0FC018081833039F484E03E
:1001E00090E090930F0180930E0123C022C080E223
:1001F00090E0FC018081882339F483E090E09093C3
:100200000F0180930E010DC080E290E0FC0180811F
:10021000833039F484E090E090930F0180930E01D5
:1002200008C007C083E090E090930F0180930E0117
:10023000000080910E0190910F0182309105B1F084
:100240008430910511F18130910509F023C088E2D5
:1002500090E0FC018081893040F488E290E0FC016C
:1002600020812F5FFC01208315C014C088E290E03C
:10027000FC018081882341F088E290E0FC0120812C
:100280002150FC01208306C005C088E290E0FC01FB
:1002900010820000DF91CF910895CF93DF93CDB707
:1002A000DEB781E290E0FC01108287E290E02FEF60
:1002B000FC01208310920F0110920E010E94900009
:0602C000FDCFF894FFCF12
:0E02C6000000000200000000670000000000C1
:00000001FF
