:100000000C944D000C946C000C946C000C946C00DF
:100010000C946C000C946C000C946C000C946C00B0
:100020000C946C000C946C000C946C000C946C00A0
:100030000C946C000C946C000C946C000C946C0090
:100040000C946C000C946C000C946C000C946C0080
:100050000C946C000C946C000C946C000C946C0070
:100060000C946C000C946C000C946C000C946C0060
:100070000C946C000C946C000C946C000C946C0050
:100080000C946C000C946C000C946C00B100E000BB
:10009000F40002011001B8001C0111241FBECFEFB3
:1000A000D0E4DEBFCDBF11E0A0E0B1E0E8EFF2E0C8
:1000B00000E00BBF02C007900D92AE30B107D9F738
:1000C00011E0AEE0B1E001C01D92A031B107E1F74F
:1000D0000E9458010C947A010C940000CF93DF9396
:1000E00000D01F92CDB7DEB789837B836A83898175
:1000F0008A3031F48A819B81BC018DE00E946E00C0
:1001000080EC90E0FC018081882F90E0807299273C
:100110000097B1F386EC90E02981FC01208380E018
:1001200090E00F900F900F90DF91CF910895CF93B3
:10013000DF93CDB7DEB780910E0190910F01CC0116
:10014000A0E0B0E040E050E026E030E0841B950BFA
:100150002817390708F477C08A5B9F4FFC010C947D
:10016000710185E090E090930F0180930E016CC0C7
:1001700080E290E0FC018081813039F481E090E000
:1001800090930F0180930E011AC080E290E0FC0171
:100190008081823039F483E090E090930F01809366
:1001A0000E010DC080E290E0FC018081833039F4C3
:1001B00086E090E090930F0180930E0145C044C00B
:1001C00080E290E0FC018081833039F486E090E0A9
:1001D00090930F0180930E0137C082E090E09093DE
:1001E0000F0180930E0130C080E290E0FC0180811D
:1001F000882339F485E090E090930F0180930E01FD
:1002000023C022C080E290E0FC018081833039F479
:1002100086E090E090930F0180930E0115C014C00A
:1002200080E290E0FC018081882331F485E090E059
:1002300090930F0180930E0185E090E090930F0161
:1002400080930E0101C0000080910E0190910F017A
:1002500083309105B1F08630910511F1813091051F
:1002600009F023C088E290E0FC018081893040F4ED
:1002700088E290E0FC0120812F5FFC01208315C003
:1002800014C088E290E0FC018081882341F088E27C
:1002900090E0FC0120812150FC01208306C005C0B4
:1002A00088E290E0FC0110820000DF91CF91089578
:1002B000CF93DF93CDB7DEB781E290E0FC011082EF
:1002C00087E290E02FEFFC01208388E290E027E0B6
:1002D000FC01208310920F0110920E010E949700E2
:1002E000FDCFEE0FFF1F0024001C0BBE0790F69100
:0802F000E02D0994F894FFCF02
:0E02F80000000002000000006E000000000088
:00000001FF
