:100000000C9446000C9465000C9465000C946500FB
:100010000C9465000C9465000C9465000C946500CC
:100020000C9465000C9465000C9465000C946500BC
:100030000C9465000C9465000C9465000C946500AC
:100040000C9465000C9465000C9465000C9465009C
:100050000C9465000C9465000C9465000C9465008C
:100060000C9465000C9465000C9465000C9465007C
:100070000C9465000C9465000C9465000C9465006C
:100080000C9465000C9465000C94650011241FBE4F
:10009000CFEFD0E4DEBFCDBF11E0A0E0B1E0E4EAF5
:1000A000F2E000E00BBF02C007900D92A431B1074F
:1000B000D9F711E0A4E1B1E001C01D92AB31B10765
:1000C000E1F70E9438010C9450010C940000CF938A
:1000D000DF9300D01F92CDB7DEB789837B836A831D
:1000E00089818A3031F48A819B81BC018DE00E9434
:1000F000670080EC90E0FC018081882F90E08072A6
:1001000099270097B1F386EC90E02981FC012083C8
:1001100080E090E00F900F900F90DF91CF910895C5
:10012000CF93DF93CDB7DEB78091190190911A017B
:1001300081309105D9F18130910520F0823091050F
:10014000D1F13EC080E290E0FC018081282F30E0B8
:1001500080911201992787FD90952817390729F476
:1001600010921A01109219011AC080E290E0FC016D
:100170008081882329F410921A01109219010FC06E
:1001800080E290E0FC018081881F8827881F8130F1
:1001900031F482E090E090931A018093190180E29B
:1001A00090E0FC018081809312010AC010921A0134
:1001B0001092190105C010921A0110921901000045
:1001C0008091190190911A018130910509F442C082
:1001D0008130910528F08230910509F441C045C075
:1001E00080E290E0FC018081882369F08091140115
:1001F000882F90E020E230E0F90120818B5E9E4F55
:10020000FC01208304C080E290E0FC0180818091A9
:100210001401882F90E08B5E9E4FFC01208180911D
:100220001401882F90E0825F9E4FFC018081281787
:1002300059F01092150110921601109217011092A8
:1002400018011092140111C0809114018F5F8093E6
:1002500014010BC085E290E021E0FC01208305C081
:1002600085E290E0FC0110820000DF91CF910895BB
:10027000CF93DF93CDB7DEB781E290E0FC0110822F
:1002800084E290E02FEFFC01208385E290E0FC0106
:10029000108210921A01109219010E949000FDCF55
:0402A000F894FFCF00
:1002A40000000002000000006700000000000401DC
:0402B4000201FF0044
:00000001FF
