:100000000C9446000C9465000C9465000C946500FB
:100010000C9465000C9465000C9465000C946500CC
:100020000C9465000C9465000C9465000C946500BC
:100030000C9465000C9465000C9465000C946500AC
:100040000C9465000C9465000C9465000C9465009C
:100050000C9465000C9465000C9465000C9465008C
:100060000C9465000C9465000C9465000C9465007C
:100070000C9465000C9465000C9465000C9465006C
:100080000C9465000C9465000C94650011241FBE4F
:10009000CFEFD0E4DEBFCDBF11E0A0E0B1E0E8E6F5
:1000A000F2E000E00BBF02C007900D92AE30B10746
:1000B000D9F711E0AEE0B1E001C01D92A031B10767
:1000C000E1F70E941A010C9432010C940000CF93C6
:1000D000DF9300D01F92CDB7DEB789837B836A831D
:1000E00089818A3031F48A819B81BC018DE00E9434
:1000F000670080EC90E0FC018081882F90E08072A6
:1001000099270097B1F386EC90E02981FC012083C8
:1001100080E090E00F900F900F90DF91CF910895C5
:10012000CF93DF93CDB7DEB780910E0190910F0191
:1001300082309105B9F18330910530F4009769F070
:100140008130910589F05CC08330910509F43EC08F
:100150008630910508F054C04DC081E090E0909346
:100160000F0180930E014DC080E290E0FC01808180
:10017000843039F482E090E090930F0180930E0177
:1001800010C080E290E0FC018081881F8827881FD2
:10019000813039F485E090E090930F0180930E0157
:1001A00030C02FC080E290E0FC018081882339F4C8
:1001B00083E090E090930F0180930E0122C081E0D4
:1001C00090E090930F0180930E011BC080E290E0BD
:1001D000FC018081823039F484E090E090930F013B
:1001E00080930E010EC081E090E090930F01809308
:1001F0000E0107C081E090E090930F0180930E0103
:10020000000080910E0190910F018430910521F042
:100210008530910539F00BC085E290E021E0FC01CA
:10022000208305C085E290E0FC0110820000DF9190
:10023000CF910895CF93DF93CDB7DEB781E290E001
:10024000FC01108284E290E02FEFFC01208385E224
:1002500090E0FC01108210920F0110920E010E949A
:080260009000FDCFF894FFCFE0
:0E02680000000002000000006700000000001F
:00000001FF
