:100000000C9446000C9465000C9465000C946500FB
:100010000C9465000C9465000C9465000C946500CC
:100020000C9465000C9465000C9465000C946500BC
:100030000C9465000C9465000C9465000C946500AC
:100040000C9465000C9465000C9465000C9465009C
:100050000C9465000C9465000C9465000C9465008C
:100060000C9465000C9465000C9465000C9465007C
:100070000C9465000C9465000C9465000C9465006C
:100080000C9465000C9465000C94650011241FBE4F
:10009000CFEFD0E4DEBFCDBF11E0A0E0B1E0E8EBF0
:1000A000F2E000E00BBF02C007900D92A431B1074F
:1000B000D9F711E0A4E1B1E001C01D92AC31B10764
:1000C000E1F70E9442010C945A010C940000CF9376
:1000D000DF9300D01F92CDB7DEB789837B836A831D
:1000E00089818A3031F48A819B81BC018DE00E9434
:1000F000670080EC90E0FC018081882F90E08072A6
:1001000099270097B1F386EC90E02981FC012083C8
:1001100080E090E00F900F900F90DF91CF910895C5
:10012000CF93DF93CDB7DEB780911A0190911B0179
:1001300081309105D9F18130910520F0823091050F
:10014000D1F13EC080E290E0FC018081282F30E0B8
:1001500080911201992787FD90952817390729F476
:1001600010921B0110921A011AC080E290E0FC016B
:100170008081882329F410921B0110921A010FC06C
:1001800080E290E0FC018081881F8827881F8130F1
:1001900031F482E090E090931B0180931A0180E299
:1001A00090E0FC018081809312010AC010921B0133
:1001B00010921A0105C010921B0110921A01000042
:1001C00080911A0190911B018130910509F44CC076
:1001D0008130910528F08230910509F44BC04FC061
:1001E00080911901882F90E08B5E9E4FFC01208149
:1001F00080911901882F90E0825F9E4FFC018081E1
:10020000281731F4809119018F5F809319012BC059
:1002100080E290E0FC018081882391F080911401BC
:10022000882F90E020E230E0F90120818B5E9E4F24
:10023000FC012083809114018F5F8093140113C00F
:1002400080E290E0FC018081882369F01092150122
:1002500010921601109217011092180110921401B9
:10026000109219010CC00BC085E290E021E0FC0166
:10027000208305C085E290E0FC0110820000DF9140
:10028000CF910895CF93DF93CDB7DEB781E290E0B1
:10029000FC01108284E290E02FEFFC01208385E2D4
:1002A00090E0FC01108210921B0110921A010E9432
:0802B0009000FDCFF894FFCF90
:1002B80000000002000000006700000000000401C8
:0402C8000201FF0030
:00000001FF
